:100000000C9434000C9451000C9451000C94510049
:100010000C9451000C9451000C9451000C9451001C
:100020000C9451000C9451000C9451000C9451000C
:100030000C9451000C940B010C9451000C94510041
:100040000C9451000C9451000C9451000C945100EC
:100050000C9451000C9451000C9451000C945100DC
:100060000C9451000C94510011241FBECFEFD8E026
:10007000DEBFCDBF11E0A0E0B1E0EEE5F3E002C0ED
:1000800005900D92AA31B107D9F721E0AAE1B1E0BC
:1000900001C01D92A032B207E1F70E941D010C942D
:1000A000AD010C94010190911B01946A9093BC00E6
:1000B0009091BC0097FFFCCF9091B900987F983049
:1000C00011F0903189F590911C019093BB009091B3
:1000D000BC009F7D9093BC009091BC0097FFFCCF2B
:1000E0009091B900987F9831F9F48093BB0080918A
:1000F000BC008F7D8093BC008091BC0087FFFCCF4B
:100100009091B900987F21E0983209F420E084E9C9
:100110008093BC003091BC00832F807134FDFACFF6
:10012000222321F0892F089521E0F1CF0895CF9364
:10013000C82F0E945300811112C08C2F84600E942E
:10014000530085E08A95F1F700008C2F8B7F0E9489
:100150005300E7ECF0E03197F1F700C00000CF91D9
:100160000895CF93C82F807F88600E94970020E178
:10017000C29FC00111248860CF910C949700EF9228
:10018000FF920F931F93CF93DF9380E0E82E81E0DF
:10019000F82EC0E0D0E002E020911F0180911E0106
:1001A000289FC00111248C179D0724F12C1778F487
:1001B00080911D01823058F480EC0E94B10087ECE0
:1001C00090E00197F1F700C0000000931D01F701D6
:1001D00011917F01812F807F89600E949700F0E15B
:1001E0001F9FC001112489600E9497002196C83189
:1001F000D10591F6DF91CF911F910F91FF90EF9074
:1002000008951F920F920FB60F9211240F900FBEF8
:100210000F901F9018951F920F920FB60F921124F6
:100220008F939F9395B180E2892785B99F918F9194
:100230000F900FBE0F901F90189580E284B9109216
:10024000C50087E68093C4008091C10088608093D8
:10025000C10080E180931F0110921A0182E0809317
:100260001E0181E080931D018EE780931C018FEFBA
:100270008093BB0084E480931B018093BC00809139
:10028000B9008C7F8093B90086B1806388B988E417
:100290008093B8002FEF80E792E02150804090409B
:1002A000E1F700C0000080E00E9453002FEF83EDD3
:1002B00090E3215080409040E1F700C0000080E3CF
:1002C0000E94970081111FC08FE496E40197F1F717
:1002D00000C0000080E30E949700811114C08FE4E9
:1002E00096E40197F1F700C0000080E30E949700B8
:1002F000811109C087E592E00197F1F700C0000085
:1003000080E20E94970080911A01882311F084E214
:1003100001C080E288600E94B1008EE00E94B100BE
:1003200081E00E94B1008FE39FE10197F1F700C0E7
:10033000000082E00E94B1008FE39FE10197F1F796
:1003400000C0000078940E94BF0083B7816083BF23
:0E035000889583B78E7F83BFF6CFF894FFCFDA
:10035E0048656C6C6F20776F726C642C2049276D2A
:0A036E00206865726521212100005E
:040000030000023ABD
:00000001FF
